:100000000C942A000C9413100C9446100C94791044
:100010000C9404310C94D1300C949E300C946B30C1
:100020000C9438300C9405300C94D22F0C949F2FE4
:100030000C94FE2B0C941C330C9457330C948A3381
:100040000C94F3070C9447000C9447000C94470061
:100050000C94470011241FBECFE5D8E0DEBFCDBF12
:1000600012E0A0E6B0E0EEE0F8E702C005900D92E5
:10007000A434B107D9F712E0A4E4B2E001C01D92A4
:10008000A939B107E1F70E94FA360C94053C0C94AB
:100090000000EF92FF920F931F937B018C0120E0F1
:1000A00030E040E05FE40E94250488238CF0C80122
:1000B000B70120E030E040E05FE40E94C1010E940F
:1000C00013059B01AC01205030404040504806C011
:1000D000C801B7010E9413059B01AC01B901CA0117
:1000E0001F910F91FF90EF900895A0E0B0E0EBE733
:1000F000F0E00C94CE3BDC012B01FA019C91923094
:1001000008F439C1EB018881823008F433C194309E
:1001100069F4843009F02FC111969C91119789815F
:10012000981709F428C1A3E2B1E025C1843009F48D
:1001300021C18230A9F4923009F01DC19A01AD01AC
:1001400088E0EA010990AE01E90109929E0181501F
:10015000C1F7E201898111969C918923818308C1AD
:10016000923009F407C112962D903C901397EB0141
:100170008A819B811496AD90BD90CD90DC901797AD
:10018000EC80FD800E811F819101281B390BB90184
:1001900037FF04C066277727621B730B6032710537
:1001A0000CF061C0121613066CF537014801062EDB
:1001B00004C096948794779467940A94D2F721E0C8
:1001C00030E040E050E004C0220F331F441F551FB1
:1001D0006A95D2F721503040404050402E213F21B7
:1001E00040235123211531054105510521F021E01E
:1001F00030E040E050E079018A01E628F72808293C
:1002000019293CC0232BD1F1260E371E350146019A
:10021000062E04C096948794779467940A94D2F734
:1002200021E030E040E050E004C0220F331F441FC3
:10023000551F6A95D2F721503040404050402A2146
:100240003B214C215D21211531054105510521F04E
:1002500021E030E040E050E059016A01A628B728CB
:10026000C828D9280BC0821593052CF01C01AA249C
:10027000BB24650103C0EE24FF24870111969C91E5
:10028000D20111968C91981709F445C0992339F041
:10029000A80197012A193B094C095D0906C0A6016E
:1002A00095012E193F09400B510B57FD08C01182D3
:1002B0003382228224833583468357831DC081E0A5
:1002C00081833382228288279927DC01821B930B4A
:1002D000A40BB50B84839583A683B7830DC0220F2F
:1002E000331F441F551F24833583468357838281E0
:1002F000938101979383828324813581468157813D
:10030000DA01C9010197A109B1098F5F9F4FAF4F72
:10031000BF4328F30BC0918333822282EA0CFB1C7B
:100320000C1D1D1DE482F5820683178383E0808304
:10033000248135814681578157FF1AC0C901AA27F8
:1003400097FDA095BA2F81709070A070B0705695EF
:10035000479537952795822B932BA42BB52B848318
:100360009583A683B7838281938101969383828349
:10037000DF0101C0D201CD01CDB7DEB7E2E10C94BF
:10038000EA3BA0E2B0E0E7ECF1E00C94DA3B6983F1
:100390007A838B839C832D833E834F835887E9E048
:1003A000EE2EF12CEC0EFD1ECE010196B7010E943F
:1003B0008B068E010F5E1F4FCE010596B8010E947D
:1003C0008B068A8991E089278A8BC701B801AE0123
:1003D000475E5F4F0E9475000E94B605A096E6E05A
:1003E0000C94F63BA0E2B0E0E8EFF1E00C94DA3BCD
:1003F00069837A838B839C832D833E834F835887C5
:10040000F9E0EF2EF12CEC0EFD1ECE010196B701A6
:100410000E948B068E010F5E1F4FCE010596B8011C
:100420000E948B06C701B801AE01475E5F4F0E9474
:1004300075000E94B605A096E6E00C94F63BA0E29B
:10044000B0E0E5E2F2E00C94CE3B69837A838B83E3
:100450009C832D833E834F835887CE010196BE0136
:10046000675F7F4F0E948B06CE010596BE016F5ECF
:100470007F4F0E948B069985923088F0898982305F
:10048000C8F0943019F4823051F404C0843029F457
:10049000923081F483E291E0C6C0923049F420E0CA
:1004A0009A858A89981321E02A87CE010996BBC0D4
:1004B000823049F420E09A858A89981321E02A8BBA
:1004C000CE014196B0C02D843E844F8458886D88FB
:1004D0007E888F88988CEE24FF248701AA24BB2471
:1004E000650140E050E060E070E0E0E0F0E0C10174
:1004F00081709070892BE9F0E60CF71C081D191D1E
:100500009A01AB012A0D3B1D4C1D5D1D80E090E062
:10051000A0E0B0E0E614F7040805190520F481E036
:1005200090E0A0E0B0E0BA01A901480F591F6A1F8E
:100530007B1FAA0CBB1CCC1CDD1C97FE08C081E0F5
:1005400090E0A0E0B0E0A82AB92ACA2ADB2A3196B6
:10055000E032F10549F0660C771C881C991C569412
:10056000479437942794C3CFFA85EA892B893C892D
:100570008B859C85280F391F2E5F3F4F17C0CA01FE
:1005800081709070892B61F016950795F794E79428
:1005900080E090E0A0E0B0E8E82AF92A0A2B1B2BC3
:1005A00076956795579547952F5F3F4F77FDE7CF36
:1005B0000CC0440F551F661F771F17FD4160EE0CDE
:1005C000FF1C001F111F21503040403090E05907A0
:1005D00090E0690790E4790760F32B8F3C8FDB0193
:1005E000CA018F779070A070B07080349105A1051A
:1005F000B10561F447FD0AC0E114F10401051105DC
:1006000029F0405C5F4F6F4F7F4F40781A8EFE1786
:1006100011F081E08A8F4D8F5E8F6F8F78A383E01A
:10062000898FCE0149960E94B605A096E2E10C940E
:10063000EA3BA8E1B0E0EFE1F3E00C94D63B69833C
:100640007A838B839C832D833E834F835887B9E0C5
:10065000EB2EF12CEC0EFD1ECE010196B7010E948F
:100660008B068E010F5E1F4FCE010596B8010E94CA
:100670008B062985223008F47EC03989323010F487
:10068000B8017CC08A859A8989278A87243011F02D
:10069000223031F4231709F06EC063E271E06EC0BE
:1006A000343039F41D861E861F86188A1C861B86E8
:1006B00004C0323021F484E08987B7015FC02B8504
:1006C0003C858B899C89281B390B3C872B87ED84C3
:1006D000FE840F851889AD88BE88CF88D88CEA142F
:1006E000FB040C051D0540F4EE0CFF1C001F111F40
:1006F000215030403C872B8720E030E040E050E044
:1007000080E090E0A0E0B0E460E070E0EA14FB0478
:100710000C051D0540F0282B392B4A2B5B2BEA18C2
:10072000FB080C091D09B695A79597958795EE0CC2
:10073000FF1C001F111F6F5F7F4F6F31710531F775
:10074000DA01C9018F779070A070B0708034910584
:10075000A105B10561F427FD0AC0E114F10401050A
:10076000110529F0205C3F4F4F4F5F4F20782D87B8
:100770003E874F87588BBE01675F7F4FCB010E943A
:10078000B6056896EAE00C94F23BA8E1B0E0EBEC29
:10079000F3E00C94DA3B69837A838B839C832D830B
:1007A0003E834F83588789E0E82EF12CEC0EFD1E26
:1007B000CE010196B7010E948B068E010F5E1F4F7E
:1007C000CE010596B8010E948B068985823040F0E3
:1007D0008989823028F0C701B8010E94030701C04F
:1007E00081E06896E6E00C94F63BA8E1B0E0EBEF20
:1007F000F3E00C94DA3B69837A838B839C832D83AB
:100800003E834F83588789E0E82EF12CEC0EFD1EC5
:10081000CE010196B7010E948B068E010F5E1F4F1D
:10082000CE010596B8010E948B068985823040F082
:100830008989823028F0C701B8010E94030701C0EE
:100840008FEF6896E6E00C94F63BA8E1B0E0EBE2AF
:10085000F4E00C94DA3B69837A838B839C832D8349
:100860003E834F83588789E0E82EF12CEC0EFD1E65
:10087000CE010196B7010E948B068E010F5E1F4FBD
:10088000CE010596B8010E948B068985823040F022
:100890008989823028F0C701B8010E94030701C08E
:1008A0008FEF6896E6E00C94F63BA8E1B0E0EBE54C
:1008B000F4E00C94DA3B69837A838B839C832D83E9
:1008C0003E834F83588789E0E82EF12CEC0EFD1E05
:1008D000CE010196B7010E948B068E010F5E1F4F5D
:1008E000CE010596B8010E948B068985823040F0C2
:1008F0008989823028F0C701B8010E94030701C02E
:1009000081E06896E6E00C94F63BA8E1B0E0EBE805
:10091000F4E00C94DA3B69837A838B839C832D8388
:100920003E834F83588789E0E82EF12CEC0EFD1EA4
:10093000CE010196B7010E948B068E010F5E1F4FFC
:10094000CE010596B8010E948B068985823040F061
:100950008989823028F0C701B8010E94030701C0CD
:1009600081E06896E6E00C94F63BA8E0B0E0EBEBA3
:10097000F4E00C94D73B9B01AC0183E08983DA015E
:10098000C9018827B7FD83959927AA27BB27B82EC9
:10099000211531054105510519F482E089833AC0DA
:1009A0008823A9F0203080E0380780E0480780E8FD
:1009B000580729F460E070E080E09FEC30C0EE243E
:1009C000FF248701E21AF30A040B150B02C0790118
:1009D0008A018EE1C82ED12CDC82CB82ED82FE8290
:1009E0000F831887C801B7010E9467050197181681
:1009F000190684F4082E04C0EE0CFF1C001F111F02
:100A00000A94D2F7ED82FE820F831887C81AD90A9A
:100A1000DC82CB82BA82CE0101960E94B60528966E
:100A2000E9E00C94F33BACE0B0E0E9E1F5E00C94D4
:100A3000DE3B69837A838B839C83CE010196BE0162
:100A40006B5F7F4F0E948B068D81823061F1823017
:100A500050F1843021F48E81882351F12EC02F81F2
:100A6000388537FD20C06E812F3131051CF066239B
:100A7000F9F023C08EE190E0821B930B29853A8523
:100A80004B855C8504C056954795379527958A9583
:100A9000D2F76623B1F050954095309521953F4FA0
:100AA0004F4F5F4F0EC020E030E040E050E009C003
:100AB0002FEF3FEF4FEF5FE704C020E030E040E072
:100AC00050E8B901CA012C96E2E00C94FA3BEF928F
:100AD000FF920F931F937B018C0180E0E81680E06A
:100AE000F80681E0080780E0180788F48FEFE81621
:100AF000F1040105110531F028F088E090E0A0E054
:100B0000B0E017C080E090E0A0E0B0E012C080E06C
:100B1000E81680E0F80680E0080781E0180728F072
:100B200088E190E0A0E0B0E004C080E190E0A0E0C7
:100B3000B0E020E230E040E050E0281B390B4A0BE7
:100B40005B0B04C016950795F794E7948A95D2F746
:100B5000F701E55DFE4F8081281B310941095109EC
:100B6000C9011F910F91FF90EF900895DF92EF92CE
:100B7000FF920F931F93FC01E480F580068117819B
:100B8000D1808081823048F480E090E0A0E1B0E044
:100B9000E82AF92A0A2B1B2BA5C0843009F49FC030
:100BA000823021F4EE24FF24870105C0E114F10412
:100BB0000105110519F4E0E0F0E096C0628173814F
:100BC0009FEF623879070CF05BC022E83FEF261BED
:100BD000370B2A3131052CF020E030E040E050E0C6
:100BE0002AC0B801A701022E04C0769567955795D3
:100BF00047950A94D2F781E090E0A0E0B0E004C00D
:100C0000880F991FAA1FBB1F2A95D2F70197A10928
:100C1000B1098E219F21A023B1230097A105B10521
:100C200021F081E090E0A0E0B0E09A01AB01282B38
:100C3000392B4A2B5B2BDA01C9018F779070A0709A
:100C4000B07080349105A105B10539F427FF09C0C2
:100C5000205C3F4F4F4F5F4F04C0215C3F4F4F4FD1
:100C60005F4FE0E0F0E02030A0E03A07A0E04A0764
:100C7000A0E45A0710F0E1E0F0E079018A0127C012
:100C80006038710564F5FB01E158FF4FD801C701D9
:100C90008F779070A070B07080349105A105B10578
:100CA00039F4E7FE0DC080E490E0A0E0B0E004C0BD
:100CB0008FE390E0A0E0B0E0E80EF91E0A1F1B1FD2
:100CC00017FF05C016950795F794E794319687E0CE
:100CD00016950795F794E7948A95D1F705C0EE2409
:100CE000FF248701EFEFF0E06E2F67956627679589
:100CF000902F9F77D794DD24D7948E2F8695492FF8
:100D0000462B582F5D29B701CA011F910F91FF9003
:100D1000EF90DF900895FC01DB0140815181228139
:100D2000622F6F7770E0221F2227221F9381892F65
:100D3000880F822B282F30E0991F9927991F119631
:100D40009C93119721153105A9F5411551056105B0
:100D5000710511F482E037C082E89FEF13969C93EF
:100D60008E9312979A01AB0167E0220F331F441F45
:100D7000551F6A95D1F783E08C930DC0220F331F66
:100D8000441F551F12968D919C91139701971396AE
:100D90009C938E931297203080E0380780E04807BC
:100DA00080E4580758F314962D933D934D935C932C
:100DB000179708952F3F310579F4411551056105C5
:100DC000710519F484E08C93089564FF03C081E0F9
:100DD0008C9312C01C9210C02F57304013963C9336
:100DE0002E93129783E08C9387E0440F551F661F64
:100DF000771F8A95D1F7706414964D935D936D9328
:100E00007C93179708951F93DC01FB019C9192300E
:100E100008F447C08081823008F443C0943051F414
:100E200011961C91843099F58181682F70E0611BC7
:100E300071093FC0843021F0923031F48230B9F131
:100E40008181882389F12DC011961C9111978230E0
:100E5000F1F081811817D9F412962D913C911397D6
:100E6000828193818217930794F028173907BCF089
:100E700014968D919D910D90BC91A02D248135816A
:100E800046815781281739074A075B0718F4112351
:100E900041F00AC082179307A407B50740F4112355
:100EA00019F061E070E005C06FEF7FEF02C060E015
:100EB00070E0CB011F910895DF93CF93CDB7DEB7DC
:100EC000A7E2B0E0E7E2F0E080818F738C93A7E2C5
:100ED000B0E0E7E2F0E0808180648C93A6E2B0E0CD
:100EE000E6E2F0E080818F7D8C93A7E2B0E0E7E25C
:100EF000F0E080818F7D8C93A6E2B0E0E6E2F0E046
:100F0000808180618C93A6E2B0E0E6E2F0E080812F
:100F100080688C93CF91DF910895DF93CF930F92E8
:100F2000CDB7DEB78983A7E2B0E0E7E2F0E08081E9
:100F3000807E8C93A7E2B0E0E7E2F0E090818981C7
:100F4000892B8C93A6E2B0E0E6E2F0E08081806439
:100F50008C930F90CF91DF910895DF93CF93CDB70E
:100F6000DEB7E6E2F0E08081829586958695837013
:100F7000882F90E081709070882399F7E4E2F0E088
:100F800080819181CF91DF910895DF93CF93CDB789
:100F9000DEB7A6E2B0E0E6E2F0E0808188608C9304
:100FA000CF91DF910895DF93CF93CDB7DEB7A6E25F
:100FB000B0E0E6E2F0E08081877F8C93CF91DF9113
:100FC0000895DF93CF9300D0CDB7DEB79A8389839E
:100FD00089819A8190934502809344020F900F90EB
:100FE000CF91DF9108951F920F920FB60F921124A7
:100FF0002F933F934F935F936F937F938F939F9321
:10100000AF93BF93EF93FF93DF93CF93CDB7DEB74B
:101010008091440290914502009729F0E0914402AA
:10102000F09145020995CF91DF91FF91EF91BF912A
:10103000AF919F918F917F916F915F914F913F9170
:101040002F910F900FBE0F901F901895DF93CF93A5
:1010500000D000D00F92CDB7DEB789836A834B836F
:101060008981282F30E03D832C838C819D818130C4
:10107000910501F12C813D81223031052CF48C81C8
:101080009D81009761F036C02C813D812230310571
:10109000E1F08C819D818330910511F12BC080E0BE
:1010A0006A8141E00E941E0A80E06B8141E00E945B
:1010B0001E0A20C081E06A8141E00E941E0A81E090
:1010C0006B8141E00E941E0A15C082E06A8141E006
:1010D0000E941E0A82E06B8141E00E941E0A0AC043
:1010E00083E06A8141E00E941E0A83E06B8141E057
:1010F0000E941E0A0F900F900F900F900F90CF91AB
:10110000DF910895DF93CF9300D000D00F92CDB739
:10111000DEB789836A834B838981282F30E03D8342
:101120002C838C819D818130910501F12C813D8141
:10113000223031052CF48C819D81009761F036C0FE
:101140002C813D8122303105E1F08C819D818330FD
:10115000910511F12BC080E06A8141E00E94220BD1
:1011600080E06B8140E00E94220B20C081E06A8118
:1011700041E00E94220B81E06B8140E00E94220B43
:1011800015C082E06A8141E00E94220B82E06B81FF
:1011900040E00E94220B0AC083E06A8141E00E9485
:1011A000220B83E06B8140E00E94220B0F900F9096
:1011B0000F900F900F90CF91DF910895DF93CF9311
:1011C00000D000D00F92CDB7DEB789836A834B83FE
:1011D0008981282F30E03D832C838C819D81813053
:1011E000910501F12C813D81223031052CF48C8157
:1011F0009D81009761F036C02C813D812230310500
:10120000E1F08C819D818330910511F12BC080E04C
:101210006A8140E00E94220B80E06B8141E00E94E5
:10122000220B20C081E06A8140E00E94220B81E015
:101230006B8141E00E94220B15C082E06A8140E090
:101240000E94220B82E06B8141E00E94220B0AC0C7
:1012500083E06A8140E00E94220B83E06B8141E0E1
:101260000E94220B0F900F900F900F900F90CF9134
:10127000DF910895DF93CF9300D000D00F92CDB7C8
:10128000DEB789836A834B838981282F30E03D83D1
:101290002C838C819D818130910501F12C813D81D0
:1012A000223031052CF48C819D81009761F036C08D
:1012B0002C813D8122303105E1F08C819D8183308C
:1012C000910511F12BC080E06A8140E00E94220B61
:1012D00080E06B8140E00E94220B20C081E06A81A7
:1012E00040E00E94220B81E06B8140E00E94220BD3
:1012F00015C082E06A8140E00E94220B82E06B818F
:1013000040E00E94220B0AC083E06A8140E00E9414
:10131000220B83E06B8140E00E94220B0F900F9024
:101320000F900F900F90CF91DF910895DF93CF939F
:1013300000D000D0CDB7DEB789836A83898184303D
:1013400090F58981282F30E03C832B838B819C8111
:1013500081309105D1F02B813C81223031052CF474
:101360008B819C81009761F01EC02B813C812230D3
:10137000310581F08B819C818330910581F013C010
:10138000EAE3F0E08A8180830EC0E7E3F0E08A813F
:10139000808309C0E4E3F0E08A81808304C0E1E354
:1013A000F0E08A8180830F900F900F900F90CF9183
:1013B000DF910895DF93CF9300D000D0CDB7DEB793
:1013C00089836A838981843090F58981282F30E070
:1013D0003C832B838B819C8181309105D1F02B81C3
:1013E0003C81223031052CF48B819C81009761F087
:1013F0001EC02B813C812230310581F08B819C8184
:101400008330910581F013C0EBE3F0E08A818083A3
:101410000EC0E8E3F0E08A81808309C0E5E3F0E0F4
:101420008A81808304C0E2E3F0E08A8180830F90A8
:101430000F900F900F90CF91DF910895DF93CF938E
:10144000CDB7DEB727970FB6F894DEBF0FBECDBF7E
:1014500089836A834B838A81883008F0EAC08B8154
:10146000813009F06FC08981282F30E03F832E83BF
:101470008E819F818130910549F12E813F812230FB
:1014800031052CF48E819F81009761F0D2C02E81AE
:101490003F812230310571F18E819F81833091052A
:1014A000E9F1C7C0AAE3B0E0EAE3F0E08081482FA9
:1014B0008A81282F30E081E090E0022E02C0880F60
:1014C000991F0A94E2F7842B8C93B3C0A7E3B0E092
:1014D000E7E3F0E08081482F8A81282F30E081E027
:1014E00090E0022E02C0880F991F0A94E2F7842B25
:1014F0008C939FC0A4E3B0E0E4E3F0E08081482F48
:101500008A81282F30E081E090E0022E02C0880F0F
:10151000991F0A94E2F7842B8C938BC0A1E3B0E06F
:10152000E1E3F0E08081482F8A81282F30E081E0DC
:1015300090E0022E02C0880F991F0A94E2F7842BD4
:101540008C9377C08B81882309F073C08981282F01
:1015500030E03D832C838C819D818130910559F150
:101560002C813D81223031052CF48C819D810097A6
:1015700069F05FC02C813D812230310589F18C8179
:101580009D818330910509F440C053C0AAE3B0E0C7
:10159000EAE3F0E08081482F8A81282F30E081E063
:1015A00090E0022E02C0880F991F0A94E2F78095FE
:1015B00084238C933EC0A7E3B0E0E7E3F0E08081B2
:1015C000482F8A81282F30E081E090E0022E02C06F
:1015D000880F991F0A94E2F7809584238C9329C081
:1015E000A4E3B0E0E4E3F0E08081482F8A81282F73
:1015F00030E081E090E0022E02C0880F991F0A942B
:10160000E2F7809584238C9314C0A1E3B0E0E1E37A
:10161000F0E08081482F8A81282F30E081E090E03F
:10162000022E02C0880F991F0A94E2F78095842346
:101630008C9327960FB6F894DEBF0FBECDBFCF9127
:10164000DF910895DF93CF93CDB7DEB727970FB61D
:10165000F894DEBF0FBECDBF89836A834B838A8136
:10166000883008F0EAC08B81813009F06FC0898131
:10167000282F30E03F832E838E819F81813091051A
:1016800049F12E813F81223031052CF48E819F81DA
:10169000009761F0D2C02E813F812230310571F177
:1016A0008E819F8183309105E9F1C7C0ABE3B0E043
:1016B000EBE3F0E08081482F8A81282F30E081E041
:1016C00090E0022E02C0880F991F0A94E2F7842B43
:1016D0008C93B3C0A8E3B0E0E8E3F0E08081482F4A
:1016E0008A81282F30E081E090E0022E02C0880F2E
:1016F000991F0A94E2F7842B8C939FC0A5E3B0E076
:10170000E5E3F0E08081482F8A81282F30E081E0F6
:1017100090E0022E02C0880F991F0A94E2F7842BF2
:101720008C938BC0A2E3B0E0E2E3F0E08081482F2D
:101730008A81282F30E081E090E0022E02C0880FDD
:10174000991F0A94E2F7842B8C9377C08B818823AE
:1017500009F073C08981282F30E03D832C838C8170
:101760009D818130910559F12C813D8122303105D7
:101770002CF48C819D81009769F05FC02C813D81A4
:101780002230310589F18C819D818330910509F4E6
:1017900040C053C0ABE3B0E0EBE3F0E08081482F02
:1017A0008A81282F30E081E090E0022E02C0880F6D
:1017B000991F0A94E2F7809584238C933EC0A8E396
:1017C000B0E0E8E3F0E08081482F8A81282F30E004
:1017D00081E090E0022E02C0880F991F0A94E2F780
:1017E000809584238C9329C0A5E3B0E0E5E3F0E085
:1017F0008081482F8A81282F30E081E090E0022EFE
:1018000002C0880F991F0A94E2F7809584238C9375
:1018100014C0A2E3B0E0E2E3F0E08081482F8A81C7
:10182000282F30E081E090E0022E02C0880F991F3F
:101830000A94E2F7809584238C9327960FB6F89448
:10184000DEBF0FBECDBFCF91DF910895DF93CF9361
:1018500000D000D00F92CDB7DEB78A836B838B8127
:10186000883008F067C08A81282F30E03D832C83C0
:101870004C815D814130510541F18C819D818230E7
:10188000910534F42C813D812115310561F052C060
:101890004C815D814230510551F18C819D818330B5
:1018A0009105B9F147C0E9E3F0E08081282F30E0ED
:1018B0008B81882F90E0A90102C0559547958A95A4
:1018C000E2F7CA018170898335C0E6E3F0E08081E8
:1018D000282F30E08B81882F90E0A90102C0559518
:1018E00047958A95E2F7CA018170898323C0E3E3B3
:1018F000F0E08081282F30E08B81882F90E0A901D3
:1019000002C0559547958A95E2F7CA01817089838F
:1019100011C0E0E3F0E08081282F30E08B81882F38
:1019200090E0A90102C0559547958A95E2F7CA0152
:101930008170898389810F900F900F900F900F9085
:10194000CF91DF910895DF93CF9300D000D0CDB732
:10195000DEB789836A838A81883008F06EC0898106
:10196000282F30E03C832B838B819C818130910533
:1019700049F12B813C81223031052CF48B819C81F3
:10198000009761F05AC02B813C812230310571F102
:101990008B819C8183309105E9F14FC0ABE3B0E0CE
:1019A000EBE3F0E08081482F8A81282F30E081E04E
:1019B00090E0022E02C0880F991F0A94E2F7842754
:1019C0008C933BC0A8E3B0E0E8E3F0E08081482FCF
:1019D0008A81282F30E081E090E0022E02C0880F3B
:1019E000991F0A94E2F784278C9327C0A5E3B0E0FF
:1019F000E5E3F0E08081482F8A81282F30E081E004
:101A000090E0022E02C0880F991F0A94E2F7842703
:101A10008C9313C0A2E3B0E0E2E3F0E08081482FB2
:101A20008A81282F30E081E090E0022E02C0880FEA
:101A3000991F0A94E2F784278C930F900F900F90D0
:101A40000F90CF91DF910895DF93CF93CDB7DEB79D
:101A500062970FB6F894DEBF0FBECDBF998B888B0F
:101A60006A8B88899989892F9927837080658F87E8
:101A70000E947B318F850E94CF3188890E943F323E
:101A80008A890E943F320E94073380E090E0A0E202
:101A9000B1E48B879C87AD87BE876B857C858D8500
:101AA0009E8520E030E04AEF54E40E941F02DC01F2
:101AB000CB018F839887A987BA876F8178858985BD
:101AC0009A8520E030E040E85FE30E9455048823D7
:101AD0002CF481E090E09E838D833FC06F817885F8
:101AE00089859A8520E03FEF4FE757E40E94F50390
:101AF00018164CF56B857C858D859E8520E030E041
:101B000040E251E40E941F02DC01CB01BC01CD0187
:101B10000E944900DC01CB019E838D830FC088ECBD
:101B200090E09C838B838B819C810197F1F79C8350
:101B30008B838D819E8101979E838D838D819E8174
:101B4000009769F714C06F81788589859A850E940E
:101B50004900DC01CB019E838D838D819E819A8318
:101B6000898389819A810197F1F79A8389836296A3
:101B70000FB6F894DEBF0FBECDBFCF91DF910895B1
:101B8000DF93CF9300D000D0CDB7DEB79C838B839B
:101B90008B819C81892F99278370806589830E941E
:101BA0007B3189810E94CF318B810E943F320E941C
:101BB000A53189810E940732CE0102960E946832C7
:101BC0000E9407338A810F900F900F900F90CF9152
:101BD000DF910895DF93CF9300D0CDB7DEB79A831E
:101BE000898389819A8190934902809348020F905A
:101BF0000F90CF91DF910895DF93CF9300D0CDB7B1
:101C0000DEB79A83898389819A8190934B0280936E
:101C10004A020F900F90CF91DF910895DF93CF93F9
:101C200000D0CDB7DEB79A83898389819A8190935A
:101C30004702809346020F900F90CF91DF91089555
:101C4000DF93CF93CDB7DEB7AAE5B0E0EAE5F0E0E9
:101C5000808181608C93AAE5B0E0EAE5F0E08081C4
:101C60008D7F8C93ABE5B0E0EBE5F0E080818064A4
:101C70008C93CF91DF910895DF93CF93CDB7DEB7EB
:101C8000AAE5B0E0EAE5F0E080818E7F8C93AAE5DA
:101C9000B0E0EAE5F0E080818D7F8C93ABE5B0E0C9
:101CA000EBE5F0E0808180688C93CF91DF9108951F
:101CB000DF93CF93CDB7DEB7ABE5B0E0EBE5F0E077
:101CC000808180628C93CF91DF910895DF93CF93D1
:101CD000CDB7DEB7ABE5B0E0EBE5F0E080818F7B20
:101CE0008C93CF91DF910895DF93CF93CDB7DEB77B
:101CF000ABE5B0E0EBE5F0E080818F778C93CF919E
:101D0000DF910895DF93CF93CDB7DEB7ABE5B0E0B9
:101D1000EBE5F0E080818F7D8C93CF91DF9108958A
:101D2000DF93CF93CDB7DEB72A970FB6F894DEBF17
:101D30000FBECDBF89836A838981282F30E03A871F
:101D4000298789859A858230910509F485C029857E
:101D50003A852330310509F4F8C089859A858130A8
:101D6000910509F01FC18A81282F30E038872F8321
:101D70008F8198858230910569F12F8138852330D4
:101D8000310534F48F8198858130910569F00AC15D
:101D90002F8138852330310599F18F8198858430E2
:101DA000910509F443C0FEC0AAE5B0E0EAE5F0E021
:101DB00080818E7F8C93AAE5B0E0EAE5F0E0808137
:101DC0008D7F8C93ABE5B0E0EBE5F0E08081806443
:101DD0008C93E8C0AAE5B0E0EAE5F0E0808181609C
:101DE0008C93AAE5B0E0EAE5F0E080818D7F8C93EA
:101DF000ABE5B0E0EBE5F0E0808180648C93D2C08D
:101E0000AAE5B0E0EAE5F0E080818E7F8C93AAE558
:101E1000B0E0EAE5F0E0808182608C93ABE5B0E071
:101E2000EBE5F0E0808180648C93BCC0AAE5B0E073
:101E3000EAE5F0E0808181608C93AAE5B0E0EAE514
:101E4000F0E0808182608C93ABE5B0E0EBE5F0E000
:101E5000808180648C93A6C08A81282F30E03E83E5
:101E60002D838D819E818230910569F12D813E8186
:101E70002330310534F48D819E818130910569F0E4
:101E800091C02D813E812330310599F18D819E8154
:101E90008430910509F443C085C0AAE5B0E0EAE5C5
:101EA000F0E080818E7F8C93AAE5B0E0EAE5F0E077
:101EB00080818D7F8C93ABE5B0E0EBE5F0E0808135
:101EC00080688C936FC0AAE5B0E0EAE5F0E080811D
:101ED00081608C93AAE5B0E0EAE5F0E080818D7F37
:101EE0008C93ABE5B0E0EBE5F0E0808180688C930B
:101EF00059C0AAE5B0E0EAE5F0E080818E7F8C93DE
:101F0000AAE5B0E0EAE5F0E0808182608C93ABE581
:101F1000B0E0EBE5F0E0808180688C9343C0AAE5F7
:101F2000B0E0EAE5F0E0808181608C93AAE5B0E062
:101F3000EAE5F0E0808182608C93ABE5B0E0EBE510
:101F4000F0E0808180688C932DC08A81282F30E05A
:101F50003C832B838B819C818330910531F02B81D5
:101F60003C812430310581F01DC0A4E5B0E0E4E5FA
:101F7000F0E080818F7B8C93ABE5B0E0EBE5F0E0A7
:101F8000808180628C930EC0A4E5B0E0E4E5F0E0CF
:101F9000808180648C93ABE5B0E0EBE5F0E080817C
:101FA00080628C932A960FB6F894DEBF0FBECDBF29
:101FB000CF91DF910895DF93CF9300D00F92CDB7EB
:101FC000DEB789838981282F30E03B832A838A8189
:101FD0009B818230910591F02A813B81233031052C
:101FE000A9F08A819B8181309105B9F4ABE5B0E01D
:101FF000EBE5F0E080818F7B8C930FC0ABE5B0E028
:10200000EBE5F0E080818F778C9307C0ABE5B0E023
:10201000EBE5F0E080818F7D8C930F900F900F9017
:10202000CF91DF9108951F920F920FB60F92112456
:102030002F933F934F935F936F937F938F939F93D0
:10204000AF93BF93EF93FF93DF93CF93CDB7DEB7FB
:102050008091460290914702009729F0E091460254
:10206000F09147020995CF91DF91FF91EF91BF91D8
:10207000AF919F918F917F916F915F914F913F9120
:102080002F910F900FBE0F901F9018951F920F92D7
:102090000FB60F9211242F933F934F935F936F933B
:1020A0007F938F939F93AF93BF93EF93FF93DF93B0
:1020B000CF93CDB7DEB78091480290914902009747
:1020C00029F0E0914802F09149020995CF91DF9102
:1020D000FF91EF91BF91AF919F918F917F916F9100
:1020E0005F914F913F912F910F900FBE0F901F90D6
:1020F00018951F920F920FB60F9211242F933F93B2
:102100004F935F936F937F938F939F93AF93BF93FF
:10211000EF93FF93DF93CF93CDB7DEB780914A0261
:1021200090914B02009729F0E0914A02F0914B0206
:102130000995CF91DF91FF91EF91BF91AF919F9161
:102140008F917F916F915F914F913F912F910F9060
:102150000FBE0F901F901895DF93CF93CDB7DEB7CA
:10216000AFE5B0E0EFE5F0E0808180688C93CF913F
:10217000DF910895DF93CF93CDB7DEB7AFE5B0E041
:10218000EFE5F0E080818F778C93CF91DF91089518
:102190000F931F93DF93CF93CDB7DEB727970FB67B
:1021A000F894DEBF0FBECDBF6A837B838C839D8393
:1021B0005F834E8310926C028A819B81AC81BD81CA
:1021C0000097A105B10509F453C019824DC08A8159
:1021D0009B81AC81BD812AE030E040E050E0BC0151
:1021E000CD010E94913BDC01CB010097A105B10517
:1021F00049F48A819B81AC81BD818A309105A1051A
:10220000B105B0F18981282F30E08E819F818C014A
:10221000020F131F8A819B81AC81BD812AE030E0CF
:1022200040E050E0BC01CD010E94913BDC01CB01BC
:10223000F80180838A819B81AC81BD812AE030E0F6
:1022400040E050E0BC01CD010E94913BDA01C901A0
:102250008A839B83AC83BD8380916C028F5F809364
:102260006C0289818F5F89838981803208F4AFCFC6
:1022700027960FB6F894DEBF0FBECDBFCF91DF918A
:102280001F910F910895DF93CF930F92CDB7DEB7D3
:102290008983898182958F70982F917081E060E0A9
:1022A000492F0E94220B8981829586958770982FED
:1022B000917081E061E0492F0E94220B8981829513
:1022C000869586958370982F917081E062E0492F02
:1022D0000E94220B8981982F991F9927991F81E0CD
:1022E00064E0492F0E94220B0F90CF91DF91089557
:1022F000DF93CF93CDB7DEB7AC970FB6F894DEBFC0
:102300000FBECDBF8CA78CA58BA78BA50E944311B8
:1023100080E063E040E00E94220B80E062E041E068
:102320000E94220B80E090E0A0E8BFE38FA398A773
:10233000A9A7BAA76FA178A589A59AA520E030E042
:102340004AEF54E40E941F02DC01CB018BA39CA343
:10235000ADA3BEA36BA17CA18DA19EA120E030E026
:1023600040E85FE30E94550488232CF481E090E06C
:102370009AA389A33FC06BA17CA18DA19EA120E05F
:102380003FEF4FE757E40E94F50318164CF56FA195
:1023900078A589A59AA520E030E040E251E40E94AA
:1023A0001F02DC01CB01BC01CD010E944900DC0110
:1023B000CB019AA389A30FC088EC90E098A38F8FDC
:1023C0008F8D98A10197F1F798A38F8F89A19AA17A
:1023D00001979AA389A389A19AA1009769F714C0CC
:1023E0006BA17CA18DA19EA10E944900DC01CB01C3
:1023F0009AA389A389A19AA19E8F8D8F8D8D9E8D81
:102400000197F1F79E8F8D8F80E062E040E00E949F
:10241000220B8CA58295807F8BA78BA50E944311F0
:1024200080E062E041E00E94220B80E090E0A0E8C2
:10243000BFE3898F9A8FAB8FBC8F698D7A8D8B8D1F
:102440009C8D20E030E04AEF54E40E941F02DC0142
:10245000CB018D8B9E8BAF8BB88F6D897E898F89D9
:10246000988D20E030E040E85FE30E945504882327
:102470002CF481E090E09C8B8B8B3FC06D897E8932
:102480008F89988D20E03FEF4FE757E40E94F503D6
:1024900018164CF5698D7A8D8B8D9C8D20E030E07F
:1024A00040E251E40E941F02DC01CB01BC01CD01DE
:1024B0000E944900DC01CB019C8B8B8B0FC088EC08
:1024C00090E09A8B898B89899A890197F1F79A8B89
:1024D000898B8B899C8901979C8B8B8B8B899C89A1
:1024E000009769F714C06D897E898F89988D0E9445
:1024F0004900DC01CB019C8B8B8B8B899C89988B51
:102500008F878F8598890197F1F7988B8F8780E067
:1025100062E040E00E94220B80E090E0A0E0B0E4A6
:102520008B879C87AD87BE876B857C858D859E85D7
:1025300020E030E04AEF54E40E941F02DC01CB01AE
:102540008F839887A987BA876F81788589859A85CF
:1025500020E030E040E85FE30E94550488232CF43B
:1025600081E090E09E838D833FC06F81788589856F
:102570009A8520E03FEF4FE757E40E94F5031816D5
:102580004CF56B857C858D859E8520E030E040E2B2
:1025900051E40E941F02DC01CB01BC01CD010E946D
:1025A0004900DC01CB019E838D830FC088EC90E055
:1025B0009C838B838B819C810197F1F79C838B8318
:1025C0008D819E8101979E838D838D819E81009751
:1025D00069F714C06F81788589859A850E944900C2
:1025E000DC01CB019E838D838D819E819A838983BB
:1025F00089819A810197F1F79A838983AC960FB606
:10260000F894DEBF0FBECDBFCF91DF9108950F9339
:102610001F93DF93CF93CDB7DEB7C455D0400FB62D
:10262000F894DEBF0FBECDBFFE01EF5AFF4F80E032
:1026300090E0A0E2B2E480839183A283B3838E0111
:10264000035B1F4FFE01EF5AFF4F60817181828152
:10265000938120E030E04AEF54E40E941F02DC0145
:10266000CB01F80180839183A283B383FE01E35BF6
:10267000FF4F608171818281938120E030E040E8EA
:102680005FE30E945504882344F4FE01E55BFF4F9D
:1026900081E090E09183808364C0FE01E35BFF4FA3
:1026A000608171818281938120E03FEF4FE757E4A1
:1026B0000E94F50318160CF043C0FE01EF5AFF4FBD
:1026C000608171818281938120E030E040E251E4B9
:1026D0000E941F02DC01CB018E01055B1F4FBC0174
:1026E000CD010E944900DC01CB01F8019183808378
:1026F0001FC0FE01E75BFF4F88EC90E09183808371
:10270000FE01E75BFF4F808191810197F1F7FE01A8
:10271000E75BFF4F91838083DE01A55BBF4FFE0126
:10272000E55BFF4F80819181019711969C938E9379
:10273000FE01E55BFF4F808191810097D1F627C0B4
:102740008E01055B1F4FFE01E35BFF4F60817181CE
:10275000828193810E944900DC01CB01F8019183C1
:102760008083DE01A95BBF4FFE01E55BFF4F8081E7
:1027700091818D939C93FE01E95BFF4F8081918154
:102780000197F1F7FE01E95BFF4F9183808380E0C1
:1027900063E041E00E941E0A80E062E041E00E94A6
:1027A0001E0A81E060E041E00E941E0A81E061E0D3
:1027B00041E00E941E0A81E062E041E00E941E0AA0
:1027C00081E064E041E00E941E0A82E00E947811EC
:1027D000FE01ED5BFF4F80E090E0A0E7B1E4808375
:1027E0009183A283B3838E01015C1F4FFE01ED5BD9
:1027F000FF4F608171818281938120E030E04AEF58
:1028000054E40E941F02DC01CB01F8018083918314
:10281000A283B383FE01FF966081718182819381DF
:1028200020E030E040E85FE30E94550488232CF468
:1028300081E090E09EAF8DAF46C0FE01FF966081C3
:1028400071818281938120E03FEF4FE757E40E943E
:10285000F503181664F5FE01ED5BFF4F6081718191
:102860008281938120E030E040E251E40E941F0227
:10287000DC01CB01BC01CD010E944900DC01CB0190
:102880009EAF8DAF0FC088EC90E09CAF8BAF8BAD4F
:102890009CAD0197F1F79CAF8BAF8DAD9EAD0197CD
:1028A0009EAF8DAF8DAD9EAD009769F716C0FE014E
:1028B000FF9660817181828193810E944900DC01D1
:1028C000CB019EAF8DAF8DAD9EAD9AAF89AF89AD77
:1028D0009AAD0197F1F79AAF89AF88E20E9478111B
:1028E00080E090E0A0E0B0E48DAB9EABAFABB8AFC2
:1028F0006DA97EA98FA998AD20E030E04AEF54E49D
:102900000E941F02DC01CB0189AB9AABABABBCAB25
:1029100069A97AA98BA99CA920E030E040E85FE38F
:102920000E94550488232CF481E090E098AB8FA797
:102930003FC069A97AA98BA99CA920E03FEF4FE786
:1029400057E40E94F50318164CF56DA97EA98FA9CE
:1029500098AD20E030E040E251E40E941F02DC012B
:10296000CB01BC01CD010E944900DC01CB0198AB39
:102970008FA70FC088EC90E09EA78DA78DA59EA580
:102980000197F1F79EA78DA78FA598A9019798ABFE
:102990008FA78FA598A9009769F714C069A97AA98C
:1029A0008BA99CA90E944900DC01CB0198AB8FA7A1
:1029B0008FA598A99CA78BA78BA59CA50197F1F73C
:1029C0009CA78BA78CE00E94781180E090E0A0E0AB
:1029D000B0E48FA398A7A9A7BAA76FA178A589A5E6
:1029E0009AA520E030E04AEF54E40E941F02DC0187
:1029F000CB018BA39CA3ADA3BEA36BA17CA18DA196
:102A00009EA120E030E040E85FE30E945504882367
:102A10002CF481E090E09AA389A33FC06BA17CA134
:102A20008DA19EA120E03FEF4FE757E40E94F50300
:102A300018164CF56FA178A589A59AA520E030E07D
:102A400040E251E40E941F02DC01CB01BC01CD0138
:102A50000E944900DC01CB019AA389A30FC088EC36
:102A600090E098A38F8F8F8D98A10197F1F798A38D
:102A70008F8F89A19AA101979AA389A389A19AA16D
:102A8000009769F714C06BA17CA18DA19EA10E9443
:102A90004900DC01CB019AA389A389A19AA19E8F49
:102AA0008D8F8D8D9E8D0197F1F79E8F8D8F81E09B
:102AB0000E94781180E090E0A0E7B1E4898F9A8FBE
:102AC000AB8FBC8F698D7A8D8B8D9C8D20E030E033
:102AD0004AEF54E40E941F02DC01CB018D8B9E8BD8
:102AE000AF8BB88F6D897E898F89988D20E030E01B
:102AF00040E85FE30E94550488232CF481E090E0D5
:102B00009C8B8B8B3FC06D897E898F89988D20E04F
:102B10003FEF4FE757E40E94F50318164CF5698D17
:102B20007A8D8B8D9C8D20E030E040E251E40E9454
:102B30001F02DC01CB01BC01CD010E944900DC0178
:102B4000CB019C8B8B8B0FC088EC90E09A8B898B90
:102B500089899A890197F1F79A8B898B8B899C894E
:102B600001979C8B8B8B8B899C89009769F714C08C
:102B70006D897E898F89988D0E944900DC01CB0187
:102B80009C8B8B8B8B899C89988B8F878F85988961
:102B90000197F1F7988B8F8786E00E94781180E08B
:102BA00090E0A0E0B0E48B879C87AD87BE876B8503
:102BB0007C858D859E8520E030E04AEF54E40E94BC
:102BC0001F02DC01CB018F839887A987BA876F81A9
:102BD000788589859A8520E030E040E85FE30E94AF
:102BE000550488232CF481E090E09E838D833FC0C0
:102BF0006F81788589859A8520E03FEF4FE757E41C
:102C00000E94F50318164CF56B857C858D859E8595
:102C100020E030E040E251E40E941F02DC01CB01E1
:102C2000BC01CD010E944900DC01CB019E838D8354
:102C30000FC088EC90E09C838B838B819C810197F3
:102C4000F1F79C838B838D819E8101979E838D8379
:102C50008D819E81009769F714C06F817885898581
:102C60009A850E944900DC01CB019E838D838D8172
:102C70009E819A83898389819A810197F1F79A834A
:102C80008983CC5ADF4F0FB6F894DEBF0FBECDBF9D
:102C9000CF91DF911F910F910895DF93CF9300D0D3
:102CA00000D0CDB7DEB789836A838981282F30E0D1
:102CB0003C832B838B819C8181309105D1F02B81CA
:102CC0003C81223031052CF48B819C81009761F08E
:102CD0001EC02B813C812230310581F08B819C818B
:102CE0008330910581F013C08A8180580E94781149
:102CF0000EC08A8180540E94781109C08A818C5646
:102D00000E94781104C08A818C520E9478110F9021
:102D10000F900F900F90CF91DF910895DF93CF9395
:102D2000CDB7DEB7AC970FB6F894DEBF0FBECDBF00
:102D30008CA78CA58BA78BA50E94431180E063E034
:102D400041E00E94220B80E062E041E00E94220B01
:102D500080E090E0A0E0B0E48FA398A7A9A7BAA76D
:102D60006FA178A589A59AA520E030E04AEF54E448
:102D70000E941F02DC01CB018BA39CA3ADA3BEA3C9
:102D80006BA17CA18DA19EA120E030E040E85FE333
:102D90000E94550488232CF481E090E09AA389A333
:102DA0003FC06BA17CA18DA19EA120E03FEF4FE72A
:102DB00057E40E94F50318164CF56FA178A589A574
:102DC0009AA520E030E040E251E40E941F02DC01BD
:102DD000CB01BC01CD010E944900DC01CB019AA3CB
:102DE00089A30FC088EC90E098A38F8F8F8D98A156
:102DF0000197F1F798A38F8F89A19AA101979AA3C0
:102E000089A389A19AA1009769F714C06BA17CA13D
:102E10008DA19EA10E944900DC01CB019AA389A348
:102E200089A19AA19E8F8D8F8D8D9E8D0197F1F72F
:102E30009E8F8D8F80E062E040E00E94220B8CA587
:102E40008295807F8BA78BA50E94431180E062E072
:102E500041E00E94220B80E090E0A0E0B0E4898F86
:102E60009A8FAB8FBC8F698D7A8D8B8D9C8D20E076
:102E700030E04AEF54E40E941F02DC01CB018D8B4D
:102E80009E8BAF8BB88F6D897E898F89988D20E05E
:102E900030E040E85FE30E94550488232CF481E091
:102EA00090E09C8B8B8B3FC06D897E898F89988D3C
:102EB00020E03FEF4FE757E40E94F50318164CF56A
:102EC000698D7A8D8B8D9C8D20E030E040E251E45D
:102ED0000E941F02DC01CB01BC01CD010E94490010
:102EE000DC01CB019C8B8B8B0FC088EC90E09A8B24
:102EF000898B89899A890197F1F79A8B898B8B89BC
:102F00009C8901979C8B8B8B8B899C89009769F797
:102F100014C06D897E898F89988D0E944900DC01DB
:102F2000CB019C8B8B8B8B899C89988B8F878F8512
:102F300098890197F1F7988B8F8780E062E040E0F5
:102F40000E94220B80E090E0A0E0B0E48B879C8799
:102F5000AD87BE876B857C858D859E8520E030E0C2
:102F60004AEF54E40E941F02DC01CB018F83988753
:102F7000A987BA876F81788589859A8520E030E0B6
:102F800040E85FE30E94550488232CF481E090E040
:102F90009E838D833FC06F81788589859A8520E0E7
:102FA0003FEF4FE757E40E94F50318164CF56B8589
:102FB0007C858D859E8520E030E040E251E40E94D2
:102FC0001F02DC01CB01BC01CD010E944900DC01E4
:102FD000CB019E838D830FC088EC90E09C838B8314
:102FE0008B819C810197F1F79C838B838D819E81DE
:102FF00001979E838D838D819E81009769F714C010
:103000006F81788589859A850E944900DC01CB0112
:103010009E838D838D819E819A83898389819A8104
:103020000197F1F79A838983AC960FB6F894DEBFC7
:103030000FBECDBFCF91DF910895DF93CF93CDB772
:10304000DEB781E00E947811CF91DF9108950F9350
:103050001F93DF93CF93CDB7DEB7CF57D0400FB6D6
:10306000F894DEBF0FBECDBFFE01E458FF4F918341
:103070008083FE01E258FF4F6083FE01E158FF4F5D
:103080004083FE01E258FF4F8081882F90E09C0131
:10309000220F331F220F331FC901880F991F880F7A
:1030A000991F820F931F982FDE01A558BF4FFE0175
:1030B000E158FF4F8081890F8C93DE01A758BF4FE5
:1030C000FE01E458FF4F808191818D939C93FE0116
:1030D000E258FF4FDE01A158BF4F80816C910E94E2
:1030E0004D16FE01EB58FF4F80E090E0A0E2B2E405
:1030F00080839183A283B3838E010F581F4FFE01FB
:10310000EB58FF4F60817181828193812BEA3AEA0B
:103110004AE250E40E941F02DC01CB01F8018083E7
:103120009183A283B383FE01EF58FF4F60817181C9
:103130008281938120E030E040E85FE30E94550403
:10314000882334F4FE01E059FF4F81E08083E0C022
:10315000FE01EF58FF4F608171818281938120E0F1
:1031600030E04FE753E40E94F50318160CF0C0C09E
:10317000FE01EB58FF4F608171818281938120E0D5
:1031800030E04AE754E40E941903DC01CB01FE0160
:10319000E459FF4F80839183A283B3838E01085942
:1031A0001F4FFE01E459FF4F60817181828193813D
:1031B00020E030E04AEF54E40E941F02DC01CB0122
:1031C000F80180839183A283B383FE01E859FF4F06
:1031D000608171818281938120E030E040E85FE38B
:1031E0000E945504882344F4FE01EA59FF4F81E010
:1031F00090E09183808364C0FE01E859FF4F6081B5
:1032000071818281938120E03FEF4FE757E40E9474
:10321000F50318160CF043C0FE01E459FF4F60811E
:1032200071818281938120E030E040E251E40E948C
:103230001F02DC01CB018E010A591F4FBC01CD01D9
:103240000E944900DC01CB01F801918380831FC0FB
:10325000FE01EC59FF4F88EC90E091838083FE01E2
:10326000EC59FF4F808191810197F1F7FE01EC59F4
:10327000FF4F91838083DE01AA59BF4FFE01EA59B7
:10328000FF4F80819181019711969C938E93FE014F
:10329000EA59FF4F808191810097D1F616C48E01C3
:1032A0000A591F4FFE01E859FF4F608171818281E9
:1032B00093810E944900DC01CB01F8019183808356
:1032C000DE01AE59BF4FFE01EA59FF4F8081918167
:1032D00011969C938E93FE01EE59FF4F8081918150
:1032E0000197F1F7FE01EE59FF4F91838083EDC303
:1032F0008E0100591F4FFE01EF58FF4F6081718111
:10330000828193810E944900DC01CB01F801808316
:10331000DE01AF59BF4FFE01E059FF4F80818C9312
:10332000FE01EF59FF4F80818A95F1F7FE01EF59B9
:10333000FF4F8083CAC3FE01E758FF4F0190F08121
:10334000E02D80810E948E16DE01A758BF4FFE013E
:10335000E758FF4F8081918101968D939C93DE0108
:10336000A558BF4FFE01E558FF4F80818F5F8C93BA
:10337000FE01E558FF4F8081843109F02DC180ECBA
:103380000E947811FE01E35AFF4F80E090E0A0E236
:10339000B2E480839183A283B3838E01075A1F4FC7
:1033A000FE01E35AFF4F60817181828193812BEA94
:1033B0003AEA4AE250E40E941F02DC01CB01F80124
:1033C00080839183A283B383FE01E75AFF4F60811C
:1033D00071818281938120E030E040E85FE30E94C8
:1033E0005504882334F4FE01E85AFF4F81E08083BE
:1033F000E0C0FE01E75AFF4F6081718182819381B5
:1034000020E030E04FE753E40E94F50318160CF07B
:10341000C0C0FE01E35AFF4F6081718182819381B8
:1034200020E030E04AE754E40E941903DC01CB01BC
:10343000FE01EC5AFF4F80839183A283B3838E01F8
:10344000005B1F4FFE01EC5AFF4F6081718182814A
:10345000938120E030E04AEF54E40E941F02DC0137
:10346000CB01F80180839183A283B383FE01E05BEB
:10347000FF4F608171818281938120E030E040E8DC
:103480005FE30E945504882344F4FE01E25BFF4F92
:1034900081E090E09183808364C0FE01E05BFF4F98
:1034A000608171818281938120E03FEF4FE757E493
:1034B0000E94F50318160CF043C0FE01EC5AFF4FB2
:1034C000608171818281938120E030E040E251E4AB
:1034D0000E941F02DC01CB018E01025B1F4FBC0169
:1034E000CD010E944900DC01CB01F801918380836A
:1034F0001FC0FE01E45BFF4F88EC90E09183808366
:10350000FE01E45BFF4F808191810197F1F7FE019D
:10351000E45BFF4F91838083DE01A25BBF4FFE011E
:10352000E25BFF4F80819181019711969C938E936E
:10353000FE01E25BFF4F808191810097D1F6C5C209
:103540008E01025B1F4FFE01E05BFF4F60817181C6
:10355000828193810E944900DC01CB01F8019183B3
:103560008083DE01A65BBF4FFE01E25BFF4F8081DF
:10357000918111969C938E93FE01E65BFF4F8081B3
:1035800091810197F1F7FE01E65BFF4F9183808304
:103590009CC28E01085A1F4FFE01E75AFF4F6081FF
:1035A0007181828193810E944900DC01CB01F80185
:1035B0008083DE01A75BBF4FFE01E85AFF4F808189
:1035C0008C93FE01E75BFF4F80818A95F1F7FE0146
:1035D000E75BFF4F808379C2FE01E558FF4F808192
:1035E000883209F0E1C084E90E947811FE01EB5BAA
:1035F000FF4F80E090E0A0E2B2E480839183A28359
:10360000B3838E010F5B1F4FFE01EB5BFF4F6081A9
:103610007181828193812BEA3AEA4AE250E40E9466
:103620001F02DC01CB01F80180839183A283B38365
:10363000FE01EF5BFF4F608171818281938120E009
:1036400030E040E85FE30E945504882334F481E0D1
:10365000FE01E05CFF4F80839DC0FE01EF5BFF4FEA
:10366000608171818281938120E030E04FE753E4F3
:103670000E94F50318160CF07EC0FE01EB5BFF4FB5
:10368000608171818281938120E030E04AE754E4D7
:103690000E941903DC01CB018CAF9DAFAEAFBFAF71
:1036A0006CAD7DAD8EAD9FAD20E030E04AEF54E4CF
:1036B0000E941F02DC01CB0188AF99AFAAAFBBAF5C
:1036C00068AD79AD8AAD9BAD20E030E040E85FE3C6
:1036D0000E94550488232CF481E090E09FAB8EABD0
:1036E0003FC068AD79AD8AAD9BAD20E03FEF4FE7BD
:1036F00057E40E94F50318164CF56CAD7DAD8EAD08
:103700009FAD20E030E040E251E40E941F02DC0166
:10371000CB01BC01CD010E944900DC01CB019FAB74
:103720008EAB0FC088EC90E09DAB8CAB8CA99DA9B3
:103730000197F1F79DAB8CAB8EA99FA901979FAB29
:103740008EAB8EA99FA9009769F7BFC168AD79AD0F
:103750008AAD9BAD0E944900DC01CB019FAB8EABD3
:103760008EA99FA99BAB8AAB8AA99BA90197F1F768
:103770009BAB8AABAAC1FE01EF5BFF4F60817181F9
:10378000828193810E944900DC01CB01FE01E05C53
:10379000FF4F8083FE01E05CFF4F808189AB89A9E8
:1037A0008A95F1F789AB91C1FE01E558FF4F808101
:1037B0008C3309F0C2C084ED0E94781180E090E063
:1037C000A0E2B2E48DA79EA7AFA7B8AB6DA57EA57A
:1037D0008FA598A92BEA3AEA4AE250E40E941F0218
:1037E000DC01CB0189A79AA7ABA7BCA769A57AA5DD
:1037F0008BA59CA520E030E040E85FE30E945504E3
:1038000088231CF481E088A791C069A57AA58BA5BF
:103810009CA520E030E04FE753E40E94F503181622
:103820000CF07BC06DA57EA58FA598A920E030E0A7
:103830004AE754E40E941903DC01CB018CA39DA349
:10384000AEA3BFA36CA17DA18EA19FA120E030E01B
:103850004AEF54E40E941F02DC01CB0188A399A324
:10386000AAA3BBA368A179A18AA19BA120E030E013
:1038700040E85FE30E94550488232CF481E090E047
:103880009F8F8E8F3FC068A179A18AA19BA120E064
:103890003FEF4FE757E40E94F50318164CF56CA173
:1038A0007DA18EA19FA120E030E040E251E40E9482
:1038B0001F02DC01CB01BC01CD010E944900DC01EB
:1038C000CB019F8F8E8F0FC088EC90E09D8F8C8FE7
:1038D0008C8D9D8D0197F1F79D8F8C8F8E8D9F8D97
:1038E00001979F8F8E8F8E8D9F8D009769F7EDC00A
:1038F00068A179A18AA19BA10E944900DC01CB01AA
:103900009F8F8E8F8E8D9F8D9B8F8A8F8A8D9B8DA3
:103910000197F1F79B8F8A8FD8C069A57AA58BA5EF
:103920009CA50E944900DC01CB0188A788A5898F4E
:10393000898D8A95F1F7898FC8C0FE01E558FF4F40
:103940008081803509F0C1C080E80E94781180E054
:1039500090E0A0E2B2E48D8B9E8BAF8BB88F6D8927
:103960007E898F89988D2BEA3AEA4AE250E40E94D8
:103970001F02DC01CB01898B9A8BAB8BBC8B6989D5
:103980007A898B899C8920E030E040E85FE30E94DF
:10399000550488231CF481E0888B91C069897A8959
:1039A0008B899C8920E030E04FE753E40E94F503C7
:1039B00018160CF07BC06D897E898F89988D20E068
:1039C00030E04AE754E40E941903DC01CB018C8704
:1039D0009D87AE87BF876C857D858E859F8520E01E
:1039E00030E04AEF54E40E941F02DC01CB018887DB
:1039F0009987AA87BB87688579858A859B8520E01A
:103A000030E040E85FE30E94550488232CF481E015
:103A100090E09F838E833FC0688579858A859B85EA
:103A200020E03FEF4FE757E40E94F50318164CF5EE
:103A30006C857D858E859F8520E030E040E251E4F5
:103A40000E941F02DC01CB01BC01CD010E94490094
:103A5000DC01CB019F838E830FC088EC90E09D83B7
:103A60008C838C819D810197F1F79D838C838E815E
:103A70009F8101979F838E838E819F81009769F735
:103A800024C0688579858A859B850E944900DC0170
:103A9000CB019F838E838E819F819B838A838A81C2
:103AA0009B810197F1F79B838A830FC069897A898B
:103AB0008B899C890E944900DC01CB01888B888915
:103AC000898389818A95F1F78983FE01E758FF4F41
:103AD0000190F081E02D8081882309F02CCCC15821
:103AE000DF4F0FB6F894DEBF0FBECDBFCF91DF9191
:103AF0001F910F9108950F931F93DF93CF93CDB72D
:103B0000DEB7C855D0400FB6F894DEBF0FBECDBFAC
:103B1000FE01ED5AFF4F6083718382839383FE0120
:103B2000E95AFF4F4083FE01E85AFF4F2083FE0110
:103B3000EE5AFF4F1082FE01ED5AFF4F80819181B6
:103B4000A281B3812CE432E0BC01CD01A9010E9425
:103B5000C810FE01E35BFF4F80E090E0A0E2B2E41A
:103B600080839183A283B3838E01075B1F4FFE0185
:103B7000E35BFF4F60817181828193812BEA3AEA96
:103B80004AE250E40E941F02DC01CB01F80180836D
:103B90009183A283B383FE01E75BFF4F6081718154
:103BA0008281938120E030E040E85FE30E94550489
:103BB000882334F4FE01E85BFF4F81E08083B4C0CA
:103BC000FE01E75BFF4F608171818281938120E07C
:103BD00030E04FE753E40E94F50318160CF094C050
:103BE000FE01E35BFF4F608171818281938120E060
:103BF00030E04AE754E40E941903DC01CB01FE01E6
:103C0000EC5BFF4F80839183A283B3838E01005CC2
:103C10001F4FFE01EC5BFF4F6081718182819381B8
:103C200020E030E04AEF54E40E941F02DC01CB01A7
:103C3000F80180839183A283B383FE01E05CFF4F90
:103C4000608171818281938120E030E040E85FE310
:103C50000E94550488232CF481E090E09FAF8EAF42
:103C600048C0FE01E05CFF4F6081718182819381D9
:103C700020E03FEF4FE757E40E94F503181664F584
:103C8000FE01EC5BFF4F608171818281938120E0B6
:103C900030E040E251E40E941F02DC01CB01BC0194
:103CA000CD010E944900DC01CB019FAF8EAF0FC058
:103CB00088EC90E09DAF8CAF8CAD9DAD0197F1F796
:103CC0009DAF8CAF8EAD9FAD01979FAF8EAF8EAD88
:103CD0009FAD009769F731C0FE01E05CFF4F608146
:103CE0007181828193810E944900DC01CB019FAFE9
:103CF0008EAF8EAD9FAD9BAF8AAF8AAD9BAD019766
:103D0000F1F79BAF8AAF19C08E01085B1F4FFE0110
:103D1000E75BFF4F60817181828193810E9449003E
:103D2000DC01CB01F8018083FE01E85BFF4F80815D
:103D300089AF89AD8A95F1F789AFFE01E85AFF4F47
:103D40008081853130F5FE01E95AFF4F8081882F4F
:103D500090E09C01220F331F220F331FC901880FEF
:103D6000991F880F991F820F931F982FDE01AE5A5B
:103D7000BF4FFE01E85AFF4F8081890F8C93FE01EF
:103D8000E95AFF4FDE01A85ABF4F80816C910E9413
:103D90004D1680916C02882309F423C280916C0235
:103DA0008150FE01EF5AFF4F808313C2FE01EF5A8C
:103DB000FF4F8081992787FD9095FC01E45BFD4FC3
:103DC0008081805D0E948E16DE01AE5ABF4FFE01DB
:103DD000EE5AFF4F80818F5F8C93FE01EE5AFF4FAA
:103DE0008081843109F076C080E80E94781180E0FB
:103DF00090E0A0E2B2E48DAB9EABAFABB8AF6DA9E3
:103E00007EA98FA998AD20E030E04AEF54E40E94EB
:103E10001F02DC01CB0189AB9AABABABBCAB69A990
:103E20007AA98BA99CA920E030E040E85FE30E94DA
:103E3000550488232CF481E090E098AB8FA73FC015
:103E400069A97AA98BA99CA920E03FEF4FE757E425
:103E50000E94F50318164CF56DA97EA98FA998AD9F
:103E600020E030E040E251E40E941F02DC01CB017F
:103E7000BC01CD010E944900DC01CB0198AB8FA7AA
:103E80000FC088EC90E09EA78DA78DA59EA50197F9
:103E9000F1F79EA78DA78FA598A9019798AB8FA73B
:103EA0008FA598A9009769F78BC169A97AA98BA9F1
:103EB0009CA90E944900DC01CB0198AB8FA78FA57C
:103EC00098A99CA78BA78BA59CA50197F1F79CA708
:103ED0008BA776C1FE01EE5AFF4F8081883209F030
:103EE00076C080EC0E94781180E090E0A0E2B2E41D
:103EF0008FA398A7A9A7BAA76FA178A589A59AA506
:103F000020E030E04AEF54E40E941F02DC01CB01C4
:103F10008BA39CA3ADA3BEA36BA17CA18DA19EA1ED
:103F200020E030E040E85FE30E94550488232CF451
:103F300081E090E09AA389A33FC06BA17CA18DA1F1
:103F40009EA120E03FEF4FE757E40E94F5031816CB
:103F50004CF56FA178A589A59AA520E030E040E254
:103F600051E40E941F02DC01CB01BC01CD010E9483
:103F70004900DC01CB019AA389A30FC088EC90E033
:103F800098A38F8F8F8D98A10197F1F798A38F8FAA
:103F900089A19AA101979AA389A389A19AA10097BF
:103FA00069F70EC16BA17CA18DA19EA10E94490061
:103FB000DC01CB019AA389A389A19AA19E8F8D8F41
:103FC0008D8D9E8D0197F1F79E8F8D8FF9C0FE012B
:103FD000EE5AFF4F80818C3309F076C084E90E944D
:103FE000781180E090E0A0E2B2E4898F9A8FAB8FE5
:103FF000BC8F698D7A8D8B8D9C8D20E030E04AEFEF
:1040000054E40E941F02DC01CB018D8B9E8BAF8B91
:10401000B88F6D897E898F89988D20E030E040E8E7
:104020005FE30E94550488232CF481E090E09C8B90
:104030008B8B3FC06D897E898F89988D20E03FEF03
:104040004FE757E40E94F50318164CF5698D7A8DF9
:104050008B8D9C8D20E030E040E251E40E941F02F5
:10406000DC01CB01BC01CD010E944900DC01CB0188
:104070009C8B8B8B0FC088EC90E09A8B898B898905
:104080009A890197F1F79A8B898B8B899C89019783
:104090009C8B8B8B8B899C89009769F791C06D896C
:1040A0007E898F89988D0E944900DC01CB019C8B11
:1040B0008B8B8B899C89988B8F878F8598890197AB
:1040C000F1F7988B8F877CC0FE01EE5AFF4F8081FD
:1040D000803509F075C080E80E94781180E090E09A
:1040E000A0E2B2E48B879C87AD87BE876B857C8519
:1040F0008D859E8520E030E04AEF54E40E941F0247
:10410000DC01CB018F839887A987BA876F81788577
:1041100089859A8520E030E040E85FE30E945504FD
:1041200088232CF481E090E09E838D833FC06F81D3
:10413000788589859A8520E03FEF4FE757E40E9414
:10414000F50318164CF56B857C858D859E8520E0E2
:1041500030E040E251E40E941F02DC01CB01BC01CF
:10416000CD010E944900DC01CB019E838D830FC0ED
:1041700088EC90E09C838B838B819C810197F1F785
:104180009C838B838D819E8101979E838D838D81FE
:104190009E81009769F714C06F81788589859A851B
:1041A0000E944900DC01CB019E838D838D819E811D
:1041B0009A83898389819A810197F1F79A83898308
:1041C000DE01AF5ABF4FFE01EF5AFF4F8081815091
:1041D0008C93FE01EF5AFF4F808188230CF0E6CDCF
:1041E00003C080E30E948E1610926C02C85ADF4F03
:1041F0000FB6F894DEBF0FBECDBFCF91DF911F91F8
:104200000F910895DF93CF9300D000D0CDB7DEB7E4
:104210009B838A836C838C81882F90E00896880F1B
:10422000991F880F991F880F991F0E947811198272
:104230000EC08981282F30E08A819B81FC01E20F2A
:10424000F31F80810E948E1689818F5F8983898107
:10425000883078F30F900F900F900F90CF91DF91EF
:104260000895DF93CF9300D000D00F92CDB7DEB783
:104270009A8389836B834C832D8389819A816B8197
:104280000E9402218C816D810E944D168B810E94BB
:104290008E1680E80E9478110F900F900F900F906B
:1042A0000F90CF91DF910895DF93CF93CDB7DEB715
:1042B000A2970FB6F894DEBF0FBECDBF6E8B7F8B7B
:1042C000888F998F81E090E0A0E0B0E08E879F8793
:1042D000A88BB98B1C8683E08F831E821D821C866F
:1042E0006E897F89888D998D20E030E040E050E034
:1042F0000E945504882314F481E08C878C858823E0
:1043000049F020E030E040E85FEB2E8F3F8F48A37C
:1043100059A308C080E090E0A0E8BFE38E8F9F8F94
:10432000A8A3B9A36E897F89888D998D2E8D3F8D25
:1043300048A159A10E941F02DC01CB018E8B9F8BEB
:10434000A88FB98F6E897F89888D998D0E941305FA
:10435000DC01CB018A8B9B8BAC8BBD8B6A897B8903
:104360008C899D890E94B5049B01AC016E897F896F
:10437000888D998D0E94C101DC01CB018E8B9F8BB2
:10438000A88FB98F10C06E897F89888D998D20E0A4
:1043900030E040E251E40E941F02DC01CB018E8B31
:1043A0009F8BA88FB98F9F819AA3AAA1AA2311F0EE
:1043B000B1E0BAA38AA19F8191509F83882319F706
:1043C0006E897F89888D998D0E944900DC01CB011F
:1043D00088879987AA87BB876E897F89888D998D01
:1043E0000E941305DC01CB01BC01CD010E94B50484
:1043F0009B01AC016E897F89888D998D0E94C101D6
:10440000DC01CB018E8B9F8BA88FB98F6E897F8942
:10441000888D998D20E030E040E251E40E941F0237
:10442000DC01CB018E8B9F8BA88FB98F6E897F8922
:10443000888D998D0E944900DC01CB018E831A8EF4
:104440001B8E1C8E1D8E8E81853040F021E030E069
:1044500040E050E02A8F3B8F4C8F5D8F8885998597
:10446000AA85BB852A8D3B8D4C8D5D8D820F931F58
:10447000A41FB51F88879987AA87BB878C85882347
:1044800031F08DE20E948E168D818F5F8D838A8937
:104490009B89AC89BD890097A105B10509F047C08A
:1044A00080E30E948E168D818F5F8D8340C08E8544
:1044B0009F85A889B9892AE030E040E050E0BC013E
:1044C000CD010E94723BDC01CB018E879F87A88BB8
:1044D000B98B8A899B89AC89BD892AE030E040E0AC
:1044E00050E0BC01CD010E94B33BDC01CB019C013B
:1044F000AD018E859F85A889B989820F931FA41F5E
:10450000B51F8E879F87A88BB98B8A899B89AC89B9
:10451000BD892AE030E040E050E0BC01CD010E94BE
:10452000B33BDA01C9018A8B9B8BAC8BBD8B8A892B
:104530009B89AC89BD890097A105B10509F0B7CF6A
:1045400028C08E859F85A889B9892AE030E040E09F
:1045500050E0BC01CD010E94B33BDC01CB01805D8A
:104560008D878D850E948E168D818F5F8D838E85C0
:104570009F85A889B9892AE030E040E050E0BC017D
:10458000CD010E94B33BDA01C9018E879F87A88BBA
:10459000B98B8E859F85A889B98981309105A10540
:1045A000B10579F688859985AA85BB850097A1050F
:1045B000B10509F485C019821A821B821C8240C091
:1045C00089819A81AB81BC812AE030E040E050E0F3
:1045D000BC01CD010E94723BDC01CB0189839A832F
:1045E000AB83BC8388859985AA85BB852AE030E0AA
:1045F00040E050E0BC01CD010E94913BDC01CB01C9
:104600009C01AD0189819A81AB81BC81820F931F8E
:10461000A41FB51F89839A83AB83BC838885998542
:10462000AA85BB852AE030E040E050E0BC01CD0126
:104630000E94913BDA01C90188879987AA87BB87C5
:1046400088859985AA85BB850097A105B10509F0E4
:10465000B7CF8EE20E948E168D818F5F8D8328C02A
:1046600089819A81AB81BC812AE030E040E050E052
:10467000BC01CD010E94913BDC01CB01805D8D87A7
:104680008D850E948E168D818F5F8D8389819A81A1
:10469000AB81BC812AE030E040E050E0BC01CD01BC
:1046A0000E94913BDA01C90189839A83AB83BC8361
:1046B00089819A81AB81BC810097A105B10581F602
:1046C0008D81A2960FB6F894DEBF0FBECDBFCF91FD
:1046D000DF910895DF93CF9300D000D0CDB7DEB740
:1046E00089836A83AFE4B0E0EFE4F0E080818E7FFD
:1046F0008C93AFE4B0E0EFE4F0E0808182608C93D3
:10470000AEE4B0E0EEE4F0E0808188608C93AEE44B
:10471000B0E0EEE4F0E0808180618C938A818130AA
:1047200071F4AFE4B0E0EFE4F0E080818F7B8C9334
:10473000AFE4B0E0EFE4F0E0808180688C938A81A0
:10474000823071F4AFE4B0E0EFE4F0E080818F7D7F
:104750008C93AFE4B0E0EFE4F0E0808180618C9373
:104760008981282F30E03C832B838B819C818A3088
:10477000910509F4D1C02B813C812B3031050CF01F
:1047800043C08B819C818530910509F4A2C02B81A7
:104790003C8126303105FCF48B819C81823091056F
:1047A00009F482C02B813C81233031053CF48B819C
:1047B0009C818130910509F470C0FAC02B813C8145
:1047C0002330310509F477C08B819C8184309105B9
:1047D00009F478C0EDC02B813C812730310509F404
:1047E00086C08B819C81873091050CF479C02B8128
:1047F0003C812830310509F481C08B819C8189304E
:10480000910509F482C0D4C02B813C812F30310541
:1048100009F4A5C08B819C8180319105CCF42B815A
:104820003C812C30310509F485C08B819C818C3012
:1048300091050CF478C02B813C812D30310509F4B1
:1048400080C08B819C818E30910509F481C0B0C0FD
:104850002B813C812231310509F496C08B819C81EA
:10486000833191056CF42B813C812031310509F4B1
:104870007DC08B819C818131910509F47EC098C0F7
:104880002B813C812331310509F485C08B819C81CA
:104890008431910509F486C08BC0E6E4F0E080E540
:1048A00093EC9183808384C0E6E4F0E080E49CE9AB
:1048B000918380837DC0E6E4F0E088EA91E691830D
:1048C000808376C0E6E4F0E080E29EE4918380831A
:1048D0006FC0E6E4F0E080E29EE49183808368C0EC
:1048E000E6E4F0E080E29EE49183808361C0E6E448
:1048F000F0E080E49FE1918380835AC0E6E4F0E039
:1049000088E893E19183808353C0E6E4F0E080EA95
:104910009FE0918380834CC0E6E4F0E084EC99E072
:104920009183808345C0E6E4F0E080ED97E09183D9
:1049300080833EC0E6E4F0E088EE93E091838083DC
:1049400037C0E6E4F0E080E293E09183808330C0FA
:10495000E6E4F0E084EF91E09183808329C0E6E40F
:10496000F0E080E991E09183808322C0E6E4F0E00A
:104970008AEF90E0918380831BC0E6E4F0E088EC4E
:1049800090E09183808314C0E6E4F0E084E690E058
:10499000918380830DC0E6E4F0E088E290E09183AB
:1049A000808306C0E6E4F0E084E190E091838083B8
:1049B000AEE4B0E0EEE4F0E080818E7F8C93AEE474
:1049C000B0E0EEE4F0E0808182608C93AEE4B0E091
:1049D000EEE4F0E080818B7F8C930F900F900F902E
:1049E0000F90CF91DF9108950F931F93DF93CF9393
:1049F000CDB7DEB727970FB6F894DEBF0FBECDBF99
:104A000089836A834B838A81813009F0D2C18B818B
:104A1000282F30E03F832E834E815F814A3051053D
:104A200009F43EC18E819F818B3091050CF043C00B
:104A3000EE81FF81E530F10509F4D4C02E813F817C
:104A400026303105FCF44E815F814230510509F476
:104A500090C08E819F81833091053CF4EE81FF816F
:104A6000E130F10509F470C0A4C12E813F812330EB
:104A7000310509F493C04E815F814430510509F43A
:104A80009FC097C18E819F818730910509F4CEC068
:104A9000EE81FF81E730F1050CF4B6C02E813F8135
:104AA0002830310509F4D4C04E815F814930510569
:104AB00009F4E0C07EC18E819F818F30910509F499
:104AC00047C1EE81FF81E031F105CCF42E813F81B9
:104AD0002C30310509F40DC14E815F814C305105F8
:104AE0000CF4F3C08E819F818D30910509F413C1C0
:104AF000EE81FF81EE30F10509F41BC15AC12E8110
:104B00003F812231310509F443C14E815F81433138
:104B100051056CF48E819F818031910509F424C187
:104B2000EE81FF81E131F10509F428C142C12E81F6
:104B30003F812331310509F433C14E815F81443116
:104B4000510509F432C135C10AE410E08981882F8A
:104B500090E0A0E0B0E024EF31E040E050E0BC01A4
:104B6000CD010E94723BDC01CB01F801918380836F
:104B700020C10AE410E08981882F90E0A0E0B0E035
:104B800020E931E040E050E0BC01CD010E94723BE1
:104B9000DC01CB01F801918380830BC1EAE4F0E0F2
:104BA0008981282F30E08AEF90E0AC01249FC0017A
:104BB000259F900D349F900D112491838083F9C01F
:104BC000EAE4F0E08981282F30E088EC90E0AC0145
:104BD000249FC001259F900D349F900D1124918337
:104BE0008083E7C0EAE4F0E08981282F30E08DE798
:104BF00090E0AC01249FC001259F900D349F900D43
:104C0000112491838083D5C0EAE4F0E08981282FC4
:104C100030E084E690E0AC01249FC001259F900D18
:104C2000349F900D112491838083C3C0EAE4F0E0A7
:104C30008981282F30E080E590E0AC01249FC001FD
:104C4000259F900D349F900D112491838083B1C0D6
:104C5000EAE4F0E08981282F30E082E390E0AC01C3
:104C6000249FC001259F900D349F900D11249183A6
:104C700080839FC0EAE4F0E08981882F90E09C0166
:104C8000220F331F220F331F220F331FC901880F3A
:104C9000991F880F991F820F931F9183808389C06A
:104CA000EAE4F0E08981282F30E0C901880F991FDC
:104CB000820F931F880F991F880F991F880F991FC4
:104CC000820F931F9183808374C0EAE4F0E08981AE
:104CD000882F90E09C01220F331F220F331FC90140
:104CE000880F991F880F991F820F931F91838083CC
:104CF00060C0EAE4F0E08981882F90E09C01220FF7
:104D0000331FC901880F991F880F991F820F931FA6
:104D1000918380834EC0EAE4F0E08981882F90E09F
:104D2000880F991F880F991F880F991F918380837F
:104D300040C0EAE4F0E08981282F30E0C901880F03
:104D4000991F880F991F820F931F9183808331C011
:104D5000EAE4F0E08981882F90E0880F991F880F9E
:104D6000991F9183808325C0EAE4F0E08981882F30
:104D700090E0880F991F918380831BC0EAE4F0E0E4
:104D80008981882F90E0880F991F9183808311C0BB
:104D9000EAE4F0E08981882F90E09183808309C064
:104DA000EAE4F0E01182108204C0EAE4F0E011824B
:104DB00010828A81823009F0D2C18B81E82FF0E025
:104DC000FD83EC832C813D812A30310509F43EC1FD
:104DD0004C815D814B3051050CF043C08C819D812D
:104DE0008530910509F4D4C0EC81FD81E630F105F0
:104DF000FCF42C813D812230310509F490C04C81B6
:104E00005D81433051053CF48C819D818130910559
:104E100009F470C0A4C1EC81FD81E330F10509F40F
:104E200093C02C813D812430310509F49FC097C186
:104E30004C815D814730510509F4CEC08C819D8144
:104E4000873091050CF4B6C0EC81FD81E830F105A6
:104E500009F4D4C02C813D812930310509F4E0C02A
:104E60007EC14C815D814F30510509F447C18C8171
:104E70009D8180319105CCF4EC81FD81EC30F10510
:104E800009F40DC12C813D812C3031050CF4F3C0A7
:104E90004C815D814D30510509F413C18C819D8198
:104EA0008E30910509F41BC15AC1EC81FD81E231BC
:104EB000F10509F443C12C813D81233131056CF4A6
:104EC0004C815D814031510509F424C18C819D8163
:104ED0008131910509F428C142C1EC81FD81E331A2
:104EE000F10509F433C12C813D812431310509F4E8
:104EF00032C135C108E410E08981882F90E0A0E03C
:104F0000B0E024EF31E040E050E0BC01CD010E9470
:104F1000723BDC01CB01F8019183808320C108E45E
:104F200010E08981882F90E0A0E0B0E020E931E036
:104F300040E050E0BC01CD010E94723BDC01CB019E
:104F4000F801918380830BC1E8E4F0E08981282F88
:104F500030E08AEF90E0AC01249FC001259F900DC6
:104F6000349F900D112491838083F9C0E8E4F0E030
:104F70008981282F30E088EC90E0AC01249FC001AB
:104F8000259F900D349F900D112491838083E7C05D
:104F9000E8E4F0E08981282F30E08DE790E0AC0173
:104FA000249FC001259F900D349F900D1124918363
:104FB0008083D5C0E8E4F0E08981282F30E084E6E2
:104FC00090E0AC01249FC001259F900D349F900D6F
:104FD000112491838083C3C0E8E4F0E08981282F05
:104FE00030E080E590E0AC01249FC001259F900D4A
:104FF000349F900D112491838083B1C0E8E4F0E0E8
:105000008981282F30E082E390E0AC01249FC00129
:10501000259F900D349F900D1124918380839FC014
:10502000E8E4F0E08981882F90E09C01220F331F93
:10503000220F331F220F331FC901880F991F880FBA
:10504000991F820F931F9183808389C0E8E4F0E069
:105050008981282F30E0C901880F991F820F931F83
:10506000880F991F880F991F880F991F820F931F10
:105070009183808374C0E8E4F0E08981882F90E018
:105080009C01220F331F220F331FC901880F991F64
:10509000880F991F820F931F9183808360C0E8E47B
:1050A000F0E08981882F90E09C01220F331FC90115
:1050B000880F991F880F991F820F931F91838083F8
:1050C0004EC0E8E4F0E08981882F90E0880F991FB6
:1050D000880F991F880F991F9183808340C0E8E44F
:1050E000F0E08981282F30E0C901880F991F880FCF
:1050F000991F820F931F9183808331C0E8E4F0E011
:105100008981882F90E0880F991F880F991F9183BC
:10511000808325C0E8E4F0E08981882F90E0880F43
:10512000991F918380831BC0E8E4F0E08981882F78
:1051300090E0880F991F9183808311C0E8E4F0E02C
:105140008981882F90E09183808309C0E8E4F0E0B2
:105150001182108204C0E8E4F0E0118210822796E8
:105160000FB6F894DEBF0FBECDBFCF91DF911F9178
:105170000F910895DF93CF93CDB7DEB728970FB681
:10518000F894DEBF0FBECDBF9A8389836B834C83B7
:105190008B81813009F028C18C81282F30E038873D
:1051A0002F838F8198858A30910509F4D1C02F8192
:1051B00038852B3031050CF043C08F8198858530C0
:1051C000910509F4A2C02F81388526303105FCF401
:1051D0008F8198858230910509F482C02F813885AE
:1051E000233031053CF48F8198858130910509F495
:1051F00070C0FAC02F8138852330310509F477C09B
:105200008F8198858430910509F478C0EDC02F8195
:1052100038852730310509F486C08F81988587301D
:1052200091050CF479C02F8138852830310509F4B7
:1052300081C08F8198858930910509F482C0D4C0DE
:105240002F8138852F30310509F4A5C08F819885CD
:1052500080319105CCF42F8138852C30310509F44B
:1052600085C08F8198858C3091050CF478C02F8192
:1052700038852D30310509F480C08F8198858E30B6
:10528000910509F481C0B0C02F81388522313105E4
:1052900009F496C08F819885833191056CF42F8134
:1052A00038852031310509F47DC08F8198858131A1
:1052B000910509F47EC098C02F81388523313105CE
:1052C00009F485C08F8198858431910509F486C0E1
:1052D0008BC0EAE4F0E089819A819183808384C065
:1052E000EAE4F0E089819A81918380837DC0EAE4D9
:1052F000F0E089819A819183808376C0EAE4F0E0CE
:1053000089819A81918380836FC0EAE4F0E089818A
:105310009A819183808368C0EAE4F0E089819A8170
:105320009183808361C0EAE4F0E089819A8191836E
:1053300080835AC0EAE4F0E089819A819183808376
:1053400053C0EAE4F0E089819A81918380834CC064
:10535000EAE4F0E089819A819183808345C0EAE4A0
:10536000F0E089819A81918380833EC0EAE4F0E095
:1053700089819A819183808337C0EAE4F0E0898152
:105380009A819183808330C0EAE4F0E089819A8138
:105390009183808329C0EAE4F0E089819A81918336
:1053A000808322C0EAE4F0E089819A81918380833E
:1053B0001BC0EAE4F0E089819A819183808314C064
:1053C000EAE4F0E089819A81918380830DC0EAE468
:1053D000F0E089819A819183808306C0EAE4F0E05D
:1053E00089819A81918380838B81823009F028C1E1
:1053F0008C81282F30E03E832D838D819E818A30E1
:10540000910509F4D1C02D813E812B3031050CF07E
:1054100043C08D819E818530910509F4A2C02D8104
:105420003E8126303105FCF48D819E8182309105CC
:1054300009F482C02D813E81233031053CF48D81F9
:105440009E818130910509F470C0FAC02D813E81A2
:105450002330310509F477C08D819E818430910518
:1054600009F478C0EDC02D813E812730310509F463
:1054700086C08D819E81873091050CF479C02D8185
:105480003E812830310509F481C08D819E818930AB
:10549000910509F482C0D4C02D813E812F303105A1
:1054A00009F4A5C08D819E8180319105CCF42D81B8
:1054B0003E812C30310509F485C08D819E818C3070
:1054C00091050CF478C02D813E812D30310509F411
:1054D00080C08D819E818E30910509F481C0B0C05D
:1054E0002D813E812231310509F496C08D819E8146
:1054F000833191056CF42D813E812031310509F411
:105500007DC08D819E818131910509F47EC098C056
:105510002D813E812331310509F485C08D819E8125
:105520008431910509F486C08BC0E8E4F0E08981FC
:105530009A819183808384C0E8E4F0E089819A8134
:10554000918380837DC0E8E4F0E089819A81918332
:10555000808376C0E8E4F0E089819A81918380833A
:105560006FC0E8E4F0E089819A819183808368C00C
:10557000E8E4F0E089819A819183808361C0E8E466
:10558000F0E089819A81918380835AC0E8E4F0E059
:1055900089819A819183808353C0E8E4F0E0898116
:1055A0009A81918380834CC0E8E4F0E089819A81FC
:1055B0009183808345C0E8E4F0E089819A819183FA
:1055C00080833EC0E8E4F0E089819A819183808302
:1055D00037C0E8E4F0E089819A819183808330C00C
:1055E000E8E4F0E089819A819183808329C0E8E42E
:1055F000F0E089819A819183808322C0E8E4F0E021
:1056000089819A81918380831BC0E8E4F0E08981DD
:105610009A819183808314C0E8E4F0E089819A81C3
:10562000918380830DC0E8E4F0E089819A819183C1
:10563000808306C0E8E4F0E089819A8191838083C9
:1056400028960FB6F894DEBF0FBECDBFCF91DF9185
:105650000895DF93CF93CDB7DEB781E064E040E0FB
:105660000E941E0A81E065E041E00E941E0A81E07E
:1056700066E040E00E941E0A81E067E041E00E948F
:105680001E0A81E064E041E00E94220B80E066E0B7
:1056900041E00E941E0A80E066E041E00E94220B89
:1056A00080E067E041E00E941E0A80E067E041E0A0
:1056B0000E94220BEDE2F0E0808180618083EDE2C8
:1056C000F0E0808180648083EDE2F0E080818C7F77
:1056D0008083AEE2B0E0EEE2F0E080818E7F8C93DA
:1056E000EDE2F0E0808180628083EDE2F0E0808195
:1056F000877F8083EDE2F0E080818B7F8083CF9194
:10570000DF910895DF93CF93CDB7DEB781E064E0FA
:1057100040E00E941E0A81E065E040E00E941E0A0F
:1057200081E066E041E00E941E0A81E067E040E01F
:105730000E941E0AEDE2F0E080818F7E8083EDE220
:10574000F0E0808180688083EDE2F0E08081806419
:105750008083EDE2F0E080818C7F8083AEE2B0E078
:10576000EEE2F0E080818E7F8C93EDE2F0E08081CC
:1057700080628083EDE2F0E08081877F8083EDE2CC
:10578000F0E080818B7F8083CF91DF910895DF935C
:10579000CF930F92CDB7DEB78983EFE2F0E0898136
:1057A0008083EEE2F0E080818823DCF7EFE2F0E036
:1057B00080810F90CF91DF910895DF93CF93CDB784
:1057C000DEB7EEE2F0E080818823DCF7EFE2F0E084
:1057D0008081CF91DF910895DF93CF9300D0CDB733
:1057E000DEB79A83898389819A8190936E02809330
:1057F0006D020F900F90CF91DF9108951F920F923D
:105800000FB60F9211248F93AF93BF93EF93FF9333
:10581000DF93CF93CDB7DEB7EFE2F0E0A0916D025A
:10582000B0916E028C918083CF91DF91FF91EF91C7
:10583000BF91AF918F910F900FBE0F901F90189551
:10584000DF93CF93CDB7DEB783E065E041E00E9400
:105850001E0A0E94862DE6E4F0E08FE19EE491832B
:105860008083CF91DF910895DF93CF9300D000D054
:10587000CDB7DEB769837A838B839C8369817A8114
:105880008B819C8120E030E044EB52EC0E942504A7
:1058900088230CF444C069817A818B819C8120E04B
:1058A00030E044EB52E40E9485041816C4F169818B
:1058B0007A818B819C8120E030E044EB52EC0E94A5
:1058C000C503882339F4EAE4F0E088EE93E091839D
:1058D000808325C069817A818B819C8120E030E0C2
:1058E00040E050E00E94C503882339F4EAE4F0E088
:1058F0008CED95E09183808312C069817A818B81E0
:105900009C8120E030E044EB52E40E94C5038823F0
:1059100031F4EAE4F0E080ED97E0918380830F902A
:105920000F900F900F90CF91DF910895DF93CF9359
:10593000CDB7DEB781E060E041E00E941E0A81E061
:1059400061E041E00E941E0A81E062E041E00E94C5
:105950001E0A81E064E041E00E941E0A81E066E0E8
:1059600041E00E941E0A81E065E041E00E941E0ABB
:1059700080E062E041E00E941E0A80E063E041E0D6
:105980000E941E0ACF91DF910895DF93CF93CDB788
:10599000DEB781E066E041E00E94220BCF91DF910B
:1059A0000895DF93CF93CDB7DEB781E065E041E0A6
:1059B0000E94220BCF91DF910895DF93CF93CDB753
:1059C000DEB780E062E041E00E94220BCF91DF91E0
:1059D0000895DF93CF93CDB7DEB780E063E041E079
:1059E0000E94220BCF91DF910895DF93CF93CDB723
:1059F000DEB781E066E040E00E94220BCF91DF91AC
:105A00000895DF93CF93CDB7DEB781E065E040E046
:105A10000E94220BCF91DF910895DF93CF93CDB7F2
:105A2000DEB780E062E040E00E94220BCF91DF9180
:105A30000895DF93CF93CDB7DEB780E063E040E019
:105A40000E94220BCF91DF910895DF93CF930F92A5
:105A5000CDB7DEB7898389818A3030F58981982F67
:105A6000917081E060E0492F0E94220B8981869528
:105A7000982F917081E061E0492F0E94220B89816B
:105A800086958695982F917081E062E0492F0E945B
:105A9000220B8981869586958695982F917081E055
:105AA00064E0492F0E94220B0F90CF91DF9108955F
:105AB000DF93CF93CDB7DEB7A3E5B0E0E3E5F0E049
:105AC00080818F7B8C93A3E5B0E0E3E5F0E08081FB
:105AD000877F8C93E2E5F0E080EC8083A9E5B0E07D
